:1000030008040201040302020101010100000000CF
:0400130000000000E9
:1000D800301060C2AFE4F508E50875F006A42427DF
:1000E800F812014DEC4D4E4F6040E50875F006A43E
:1000F8002427F874FF12015BE4FBFAF9F8C3120134
:100108003C7027E50875F006A4242BF8E620E50ADC
:10011800E5089000039342248010E50875F006A4D2
:100128002427F8120185000000010508E508B40439
:03013800A7D2AF9C
:01013B0022A1
:10037400C2AFE5257016E5237012AF24EF90000795
:0F03840093F521E521652060031201FDD2AF2220
:0C03B100C210E4F525F523F524020393A7
:0703C900C2AF0525D2AF22EF
:10034A00C2AF301022E52560021525E5257018E5B3
:10035A00237014AF24EF90000793540FF521E52181
:0A036A006520600312031CD2AF22CD
:10001E008E098F0ACFEDCF0DC8EFC8A60ACFEDCF50
:10002E000DC8EFC8A609CFEDCF0DC8EFC8F6CFEDBE
:10003E00CF0DC8EFC8A6F0CFEDCF0DC8EFC8A68381
:10004E00CFEDCF0DC8EFC8A682E5D054E7CEEDCEEA
:10005E000DC8EEC8F6CFEDCF0DC8EFC8E4F6CFED64
:10006E00CF0DC8EFC87601CFEDCF0DC8EFC8760221
:10007E00CFEDCF0DC8EFC87603CFEDCF0DC8EFC8CB
:10008E007604CFEDCF0DC8EFC87605CFEDCF0DC8F6
:10009E00EFC87606C8EDC87607EB75F006A42426E1
:1000AE00F8C6EDC6EB75F006A42427F812018500FC
:1000BE00000000EB75F006A4242BF8E4F6EB6404C4
:0A00CE006007EB9000039342242228
:080254007F0A7E007D007C00A2
:10025C008F0C8E0B8D0A8C09E4FFFEFDFCAB0CAAF7
:10026C000BA90AA809D312013C402EE52054FC70BE
:10027C0028C2AFAF20EF90000393F4540F5224AF79
:10028C000CAE0BAD0AAC09AB20EB75F006A4242721
:0A029C00F8120179D2AF12037422A8
:10039300758910758DFC758B18C2AFD2ABD28E22C6
:0200170080FE69
:0503D70012025480FB3E
:0E03A3007F321202567FF47E0112025880F75C
:0703D0007F1412025680F9B0
:0503DC0012025480FB39
:1002A6001203B17E037FD77D5DE4FB12001E7E0341
:1002B6007FA37D767B0112001E7E037FD07D8F7B20
:1002C6000212001E7E037FDC7DA87B0312001E7EC9
:0D02D600007F177D447B0412001E0202E32E
:1001FD00C0E0C0F0C083C082C0D0C000C001C0024A
:10020D00C003C004C005C006C007AF81AE20EE75A7
:10021D00F006A42426F8C6EFC6852120AF20EF7581
:10022D00F006A42426F8E6F581D007D006D005D037
:10023D0004D003D002D001D000D0D0D082D083D052
:07024D00F0D0E0D2AF222245
:10031C00852120AF20EF75F006A42426F8E6F581A0
:10032C00D007D006D005D004D003D002D001D00025
:0E033C00D0D0D082D083D0F0D0E0D2AF322229
:1002E300D210AF24EF90000793F521852120AF2092
:1002F300EF75F006A42426F8E6F581D007D006D0E2
:1003030005D004D003D002D001D000D0D0D082D009
:0903130083D0F0D0E0D2AF222229
:03001B0002019E41
:10019E00C0E0C0F0C083C082C0D075D018758DFC91
:1001AE00758B181203C9C2AFC000C001C002C003D4
:1001BE00C004C005C006C007E525B4010FAF81AE6F
:1001CE0020EE75F006A42426F8C6EFC6D2AF1200B4
:1001DE00D812034AD007D006D005D004D003D002DF
:0F01EE00D001D000D0D0D082D083D0F0D0E0327A
:030000000203BD3B
:0C03BD00787FE4F6D8FD7581C00202A62E
:10013C00EB9FF5F0EA9E42F0E99D42F0E89C45F019
:01014C002290
:0C014D00E6FC08E6FD08E6FE08E6FF22DE
:100159007401FF3395E0FEFDFC080808E62FFFF661
:1001690018E63EFEF618E63DFDF618E63CFCF622DA
:0C017900ECF608EDF608EEF608EFF622B2
:10018500D083D082E493F608740193F60874029341
:09019500F608740393F674047378
:00000001FF
